:020000040800F2
:1000000080210020C1010008D3260008CF2200086B
:10001000D1260008E7070008E145000800000000BD
:10002000000000000000000000000000152A000889
:1000300031080008000000004F280008212A0008AD
:10004000DB010008DB010008DB010008DB01000820
:10005000DB010008DB010008DB010008DB01000810
:10006000DB010008DB010008DB010008DB01000800
:10007000DB010008DB010008DB010008DB010008F0
:10008000DB010008DB010008DB010008DB010008E0
:10009000DB010008DB010008DB010008DB010008D0
:1000A000DB010008DB010008DB010008DB010008C0
:1000B000C92A0008DB010008DB010008DB01000899
:1000C000DB010008DB010008DB010008DB010008A0
:1000D000DB010008DB010008DB010008DB01000890
:1000E000DB010008DB010008DB010008DB01000880
:1000F000DB010008DB010008DB010008DB01000870
:10010000DB010008DB010008DB010008DB0100085F
:10011000092C0008DB010008DB010008DB010008F6
:10012000DB010008DB010008DB010008DB0100083F
:10013000DB010008DB010008DB010008DB0100082F
:10014000DB010008DB010008DB010008DB0100081F
:10015000DB010008DB010008DB010008DB0100080F
:10016000DB010008DB010008DB010008DB010008FF
:10017000DB010008D5260008DB01000800000000B4
:10018000DB010008DB010008DB010008DB010008DF
:10019000DB010008DB010008DB010008DB010008CF
:1001A000DB010008DB010008DB010008DFF80CD0F0
:1001B00000F0CAFA00480047CD4F00088021002017
:1001C0000648804706480047FEE7FEE7FEE7FEE7F1
:1001D000FEE7FEE7FEE7FEE7FEE7FEE7AD2A0008E2
:1001E000AD0100082DE9F05F0546002092469B46D0
:1001F00088460646814640241BE02846414647463D
:10020000224600F0EBF853465A46C01A914110D3EB
:1002100011461846224600F0D2F82D1A67EB010865
:100220004F4622460120002100F0C9F817EB0009D3
:100230004E41201EA4F10104DFDC484631462A4627
:100240004346BDE8F09F40EA01039B0703D009E065
:1002500008C9121F08C0042AFAD203E011F8013BB2
:1002600000F8013B521EF9D27047D2B201E000F80B
:10027000012B491EFBD270470022F6E710B513464A
:100280000A4604461946FFF7F0FF204610BD2DE947
:10029000F04D81EA030404F0004B21F000451446C0
:1002A0004FF0000A23F0004150EA050220D054EA42
:1002B00001021DD0C5F30A570246C5F31303C1F36B
:1002C0001300C1F30A5640F4801543F48013A7EBE2
:1002D0000608101BD64608F2FD3873EB050002D362
:1002E00008F1010801E092185B41B8F1000F03DA50
:1002F00000200146BDE8F08D00204FF48011064635
:1003000084460EE0171B73EB050705D3121B63EB46
:10031000050306434CEA010C49084FEA30009218E5
:100320005B4150EA0107EDD152EA030012D082EAA4
:10033000040083EA0501084305D0101BAB4106D237
:100340000122002306E000224FF0004302E06FF09C
:10035000010253101AEB06004CEB085110EB0A0097
:1003600041EB0B01BDE8F04D00F048B800F0004251
:1003700030F000400AD0C10D01F56071C0F31600E5
:1003800042EA0151C208400711437047002001466C
:10039000704730B50B46014600202022012409E0B9
:1003A00021FA02F59D4205D303FA02F5491B04FA2E
:1003B00002F52844151EA2F10102F1DC30BD202A0D
:1003C00004DB203A00FA02F1002070479140C2F1AC
:1003D000200320FA03F3194390407047202A04DBDE
:1003E000203A21FA02F00021704721FA02F3D040AE
:1003F000C2F12002914008431946704710B5141EFF
:1004000073F1000408DA401C41F1000192185B41CD
:100410001A4301D120F0010010BD2DE9F04D9246A4
:100420009B4611B1B1FA81F202E0B0FA80F22032BB
:100430009046FFF7C4FF04460F4640EA0A0041EA2F
:100440000B0153465A46084313D0114653EA0100A4
:1004500019D0C8F140025046FFF7C0FF05460E46CE
:10046000504659464246FFF7AAFF084305D00120EF
:1004700004E020463946BDE8F08D0020054346EAF9
:10048000E0762C4337430A986305E40AA0EB0800A2
:100490000022FD0A44EA47540A3002D500200146F2
:1004A000E9E7010510196941DDE9084500196941CD
:1004B000BDE8F04DA2E72DE9FE4F804681EA03003A
:1004C000C00F0C46009021F0004123F00045B8EB2E
:1004D0000200A94105D24046214690461C460B46E3
:1004E000024623F00040104347D0270DC7F30A000F
:1004F000C3F30A510290401A019040286BDAC3F30B
:10050000130040F4801B0098924620B10023D2EBE8
:10051000030A63EB0B0B01985946C0F140025046A9
:10052000FFF74DFF06460D4650465946019A00F02A
:100530001DF910EB08006141002487EA115284EA9A
:10054000E7731A4340D0009A62B3019A012A4FEA36
:10055000075215DC001B61EB02014FF0004202EA7A
:100560000752CDE90042001C41F5801132462B466E
:10057000FFF753FF03B0BDE8F08F40462146F9E78F
:10058000001B61EB0201001C41F5801300185B4168
:100590002018A2F5001747EB030140EAD570B61901
:1005A0006D4111E06D084FEA360645EAC0754FEA25
:1005B0000752001B61EB0201001C41F58011490844
:1005C0004FEA30000019514132462B4603B0BDE8D6
:1005D000F04FFFF713BF0098012240000023D0EB3B
:1005E000020263EBE073009821464FEAE074B8EB37
:1005F000000061EB0401E9E783F000435BE781F071
:10060000004158E72DE9FE4F81EA030404F000445D
:1006100021F0004100944FF0000B23F0004350EA1A
:1006200001045ED052EA03045BD0C3F30A54C1F361
:100630000A552C44A4F2F3340194A0FB0254C1F3F4
:10064000130141F48011C3F3130343F4801301FB3E
:10065000024400FB034E840A970A44EA815447EAA5
:100660008357A4FB076802958D0A05FB07854FEAAF
:10067000932C04FB0C542705029D4FEA065847EAC9
:100680001637B5EB08056EEB070C870E920E47EA9E
:10069000811742EA8312A7FB0201B6EB0B0164EB60
:1006A00000042B0D43EA0C335E1844EB1C50DA4671
:1006B0005146E7FB0201C5F313044FEA0B3343EA4B
:1006C00014534FEA0432019C43EA0603A4F10C04DC
:1006D0000294009CCDE900B4FFF79FFE03B0BDE893
:1006E000F08F00200146F9E7C1F30A52C1F313016C
:1006F00040F2FF3341F480119A4202DA00200146B1
:10070000704740F233439A42A2F2334202DC524233
:10071000FFF764BEFFF753BE30B5041E71F100044D
:1007200004DB4FF00044404264EB0101141E73F1FE
:10073000000405DB1C464FF00043524263EB040308
:10074000994208BF904230BD064C074D06E0E06874
:1007500040F0010394E8070098471034AC42F6D308
:10076000FFF728FDC4510008E4510008202A06DBE9
:10077000CB17203A41FA02F043EAE07306E041FA6F
:1007800002F3D040C2F1200291400843194670475D
:1007900070B58C1810F8015B15F0070301D110F843
:1007A000013B2A1106D110F8012B03E010F8016B70
:1007B00001F8016B5B1EF9D12B0705D40023521EF3
:1007C0000DD401F8013BFAE710F8013BCB1A921C5B
:1007D00003E013F8015B01F8015B521EF9D5A14259
:1007E000D8D3002070BDFEE700207047002070477E
:1007F00010B500220449054802F06CFC0449034886
:1008000002F062FC002010BD80130020A80200202E
:10081000800B002010B50146034802F055FC024849
:1008200002F037FC002010BDA80200200020704715
:100830007047704770B5B3F5804F05D06FF07041C9
:1008400040F82210002070BD50F82240084B8E89DD
:100850001C40D1E9003543EA05138D6889692D02F2
:1008600045EA06452B430B43234340F82230E9E792
:100870000000F0CFF0B50C6850F82430174A134050
:10088000D1E90125D1E903672A433E4332434E694A
:1008900032438E693243CE6932430E6A32434E6A26
:1008A00032438E6A3243CE6A3243CE6B32430E6B92
:1008B00032434E6B32431A43082D01D142F04002BD
:1008C00040F824204A6BB2F5801F05D1096819B1A0
:1008D000016841F4801101600020F0BD8000E0FF5C
:1008E000F0B500EB8204626802F04045D1E90023D4
:1008F00042EA03128B688E891B0243EA06431A43BD
:100900000E8A0D4B03EB065632430E7D5F0107EB5B
:10091000066632438E6932432A4362600268D2021D
:1009200007D54268098A22F4700203EB0151114392
:1009300041600020F0BD00000000F0FF90F835108D
:10094000022903D08021416501207047052180F8EC
:1009500035100068016821F0010101600020704736
:1009600070B5044600F088F90546601C02D00448C2
:100970000078044400F080F9401BA042FAD370BD17
:10098000A80000202DE9F04786B014216846FFF743
:1009900073FC3948016800296AD10127076037488C
:1009A0008846016841F0010101600068022500F0FD
:1009B000010005904FF23F008DE8A10003240C26B2
:1009C000DFF8BC90CDE903466946484600F064F87C
:1009D000CDF80880CDE90346CDE900756946294880
:1009E00000F05AF8A8028DE82101CDE903466946D6
:1009F000484600F051F840F23F208DE8A100DFF8B2
:100A00008890CDE903466946484600F045F84FF620
:100A100080708DE8A100DFF874A0CDE90346694637
:100A2000504600F039F84FF633708DE8A100CDE95B
:100A300003466946164800F02FF84FF401408DE850
:100A40002101CDE903466946484600F025F86020BB
:100A50008DE82101CDE9034669460E4800F01CF8F7
:100A60008DE83001CDE903466946504600F014F8A0
:100A700006B0BDE8F08700003C0000203838024096
:100A8000001402400008024000180240001002401A
:100A9000000C0240000402402DE9F84F00224FF004
:100AA000010803254FF00F0E0B6808FA02F42340EB
:100AB000A3426ED14E68012E05D0022E03D0112E16
:100AC00001D0122E12D186684FEA420C05FA0CF7BB
:100AD000BE43CF6807FA0CF7374387604668A643E2
:100AE0000C79C4F30014944034434460C668570042
:100AF00005FA07FC8C6826EA0C06BC403443C46047
:100B00004C68022C01D0122C13D1D40800EB8404C1
:100B1000A346D4F8209054074FEAD46A0EFA0AF696
:100B200029EA06090E6906FA0AF646EA0906CBF82A
:100B3000206004680E7924EA0C0406F00306BE4027
:100B4000264306604C68E4006FD53B4C266846F4AB
:100B500080462660246822F0030604F48044009452
:100B6000364C3444A446D4F808489607360F0EFA9B
:100B700006F7BC43324FB84201D100272EE0314F77
:100B8000B84201D1012729E02F4FB84202D10227F4
:100B900024E04AE02D4FB84201D103271EE02C4F3C
:100BA000B84201D1042719E02A4FB84201D10527E4
:100BB00014E0294FB84201D106270FE0274FB84271
:100BC00001D107270AE0264FB84201D1082705E0E6
:100BD000244FB84201D1092700E00A27B740274334
:100BE000CCF80878204E34684F689C43FF0300D54A
:100BF0001C4334601C4E361D34684F689C43BF0351
:100C000000D51C433460184E083634684F689C4346
:100C1000FF0200D51C433460134E0C3634684F6815
:100C20009C43BF0200D51C433460521C102AFFF4C1
:100C30003BAFBDE8F88F000044380240003001406F
:100C4000000002400004024000080240000C024084
:100C5000001002400014024000180240001C024034
:100C60000020024000240240003C01400AB18161A2
:100C700070470904FBE700000148806870470000E6
:100C8000A800002002488168027811448160704702
:100C9000A80000200B4810B5016841F40071016004
:100CA000016841F480610160016841F48071016074
:100CB000032000F071F8002000F006F800F024F89E
:100CC000002010BD003C024070B50D4D04464FF4AD
:100CD0007A712878B1FBF0F00A490968B1FBF0F0AD
:100CE00000F0CFFF48B9102C07D200222146501E39
:100CF00000F032F800206C6070BD012070BD000073
:100D0000A8000020B40000200B4882B0016841F424
:100D100080410160006800F4804000900648001F98
:100D2000016841F080510160006800F0805000903F
:100D3000072002B000F030B844380240002809DB38
:100D400000F01F02012191404009800000F1E020E5
:100D5000C0F8001170470000F0B40E4B1B680C4641
:100D6000C3F30223C3F10705042D00D90425191D7F
:100D7000072901D2002300E0DB1E012606FA05F157
:100D8000491E214099409E40761E16403143F0BCDA
:100D900003F038BC0CED00E0064900F007020868DB
:100DA0004FF6FF03184040EA0220034A1043086050
:100DB000704700000CED00E00000FA057047006885
:100DC000416200207047F0B50368586A39B19C6AE7
:100DD0004FF4827600EB144400204D1E0AE040EAF6
:100DE000024098620FE006EB8007DF59401C04EBDD
:100DF0001744C0B2A842F6D344EA02404FF48072CE
:100E000002EB810158500020F0BDD0F8040402F03C
:100E1000E5BBC1EBC10200EB8202D0F80404926C86
:100E200002F050BBC1EBC10200EB8202D0F8040417
:100E3000D2F8082202F09BBBD0F8040402F0D0BB29
:100E400070B504460B0601F00F00C0EBC00104EBC7
:100E500081014FF001024FF0000503D581F83D20DC
:100E60003C3103E081F8FD5101F5FE71087094F802
:100E7000BC03012808D084F8BC23206802F04CFF92
:100E800084F8BC53002070BD022070BD70B50446CC
:100E900001F00F006268904201D9012070BD0B067D
:100EA00001F00F01C1EBC10104EB81014FF0010220
:100EB0004FF0000503D581F83D203C3103E081F877
:100EC000FD5101F5FE718D70087094F8BC03012886
:100ED00008D084F8BC23206803F014F984F8BC53CC
:100EE000002070BD022070BD01F00F01C1EBC101F7
:100EF00000EB8100D0F8140270472DE9F041044660
:100F00000F0601F00F00C0EBC00104EB81014FF0B0
:100F100001064FF0000503D581F83D603C3103E048
:100F200081F8FD5101F5FE7108708A60CB704A7836
:100F300002B1C880022B00D10D7194F8BC030128C6
:100F400009D084F8BC63206802F042FE284684F889
:100F5000BC53BDE8F0810220FBE770B50C4601F000
:100F60000F05C5EBC50100EB8101C1F81032C1F8D6
:100F700008220023C1F8143281F8FD3181F8FC51B8
:100F8000036901F5FE71012B00D10A612207027C81
:100F9000006803D003F00EF9002070BD02F0FAFFE4
:100FA000FAE770B504460D4601F00F00616888420B
:100FB00001D9012070BD29064FF000064FF0010253
:100FC00007D5C0EBC00104EB810181F83D203C3125
:100FD00007E0C5EBC50104EB810181F8FD6101F576
:100FE000FE718A70087094F8BC03012807D084F859
:100FF000BC23206803F0B2F8280702D007E00220E3
:1010000070BD217C04F57172206803F04FF884F8FC
:10101000BC63002070BD70B50C4601F00F05C5EB38
:10102000C50100EB81010B658A6400234B65012338
:1010300081F83D3001F83C5F0369012B00D10A6162
:101040002207027C006803D003F0B4F8002070BDD2
:1010500002F0A0FFFAE700002DE9FC5F05680446F6
:10106000284603F0D0F900287ED1206803F0F7F974
:10107000002879D0206803F0F2F9800704D52168B0
:10108000486900F002004861206803F0E8F9C106F1
:1010900004F57170009034D52068816921F0100149
:1010A00081612F6A07F00F00C0EBC00004EB8006DF
:1010B000C7F3434006F5FE76022802D0062811D079
:1010C0001AE047F6F070074216D0C7F30A12174627
:1010D0002846F16803F0C7F9F0683844F060B06959
:1010E000384408E008222846009903F0BCF9B069AA
:1010F000C7F30A110844B0612068816941F010010A
:101100008161206803F0ABF900034FF0010A4FF052
:10111000080B5BD50026206803F080F90746DFF84E
:10112000689351E0F8074DD0F1B2206803F08FF9D1
:101130008046C00707D005EB4611C1F808AB314621
:10114000204601F0CDFA5FEA087022D505EB461182
:10115000C1F808BB2068016C00EB46100191D0F883
:10116000082B494507D900E08BE1110403D54FF462
:101170000041C0F8081B204600F078FA0198484565
:1011800007D92069012804D120680121009A02F0C2
:101190008DFF5FEAC86004D505EB46111020C1F849
:1011A000080B5FEA886004D505EB46112020C1F8E2
:1011B000080B5FEA884005D505EB46104FF4005157
:1011C000C0F8081B7F08761C002FABD1206803F005
:1011D00046F940034FF000095CD5206803F017F989
:1011E0000746002654E0F80750D0F1B2206803F01B
:1011F0001CF98046C00723D006F00F020AFA02F05D
:10120000D5F834288243C5F8342805EB4610C0F8D9
:1012100008A9206901280FD1C6EBC60004EB8000A5
:10122000D0E911211144816436B9206D20B92068BC
:101230000121009A02F03AFFF1B22046FFF7E9FDE2
:101240005FEA087003D505EB4611C1F808B95FEAFB
:10125000C86004D505EB46111020C1F808095FEA03
:10126000486004D505EB46114020C1F808095FEA43
:10127000887004D505EB46110220C1F808095FEA21
:10128000086003D53146204601F090FA7F08761CAD
:10129000002FA8D1206803F0E2F8002811DAD5F871
:1012A000040820F00100C5F8040894F8F4030128AC
:1012B00029D0204600F0BEF92068416901F00041C4
:1012C0004161206803F0CBF800050BD5D5F808087C
:1012D000C00702D0204600F0F1F92068416901F40E
:1012E00000614161206803F0BAF8C00468D5D5F800
:1012F000040820F00100C5F804081021206803F05C
:1013000063F8002127E084F8F49300212046FFF7DA
:1013100055FDD1E705EB41104FF67F32C0F80829A3
:10132000D0F8003923F40013C0F80039D0F80039A0
:1013300043F00063C0F80039C0F8082BD0F8002B48
:1013400022F40012C0F8002BD0F8002B42F000620B
:10135000C0F8002B491C60688842DBD8D5F81C080F
:1013600040F00110C5F81C08206B60B1D5F8840866
:1013700040F00B00C5F88408D5F8440840F00B0095
:10138000C5F844080CE0D5F8141842F22B000143CC
:10139000C5F81418D5F8100840F00B00C5F810086F
:1013A000D5F8000820F4FE60C5F80008217C20680C
:1013B000009A02F07BFE2068416901F4805141618E
:1013C000206803F04CF8800415D5206802F040FC3A
:1013D000206803F00BF8E06000F022FA0146227B5F
:1013E000206803F077F8204600F00EF92068416984
:1013F00001F400514161206803F031F8000707D57E
:10140000204600F01BF92068416901F008014161A4
:10141000206803F024F8C00208D50021204600F01F
:1014200035F82068416901F480114161206803F0BA
:1014300016F8800208D50021204600F02BF820681D
:10144000416901F400114161206803F008F840008F
:1014500007D52046FFF7D9FC2068416901F080419B
:101460004161206802F0FBFF40070AD5206845680B
:10147000680702D52046FFF7DFFC20684168294352
:101480004160BDE8FC9F00000A30544FD0F80404CE
:1014900002F0FAB8D0F8040402F0F8B82DE9F041EF
:1014A0008AB0040005D094F8BD032668002520B159
:1014B00008E001200AB0BDE8F08184F8BC53204662
:1014C00000F05EF8032084F8BD03F06BC00500D483
:1014D0002561206802F058FD04F110012822884699
:1014E0006846FEF7B0FE94E80F0002F0BFFB02264C
:1014F000C8BB0021206802F0C4FF002001270EE0D5
:10150000C0EBC00104EB810181F83D7001F83C0F94
:10151000C880CD708D60CD60401CC0B24D616168E7
:101520008142EDD8002011E0C0EBC00104EB810145
:1015300081F8FD5181F8FC0181F8FF51C1F8045296
:10154000C1F80852401CC0B2C1F810526168814213
:10155000EAD8282241466846FEF775FE94E80F0057
:1015600002F058FC10B184F8BD63A2E784F838504B
:1015700084F8BD73206802F041FC00209AE7000067
:1015800070B586B0044614216846FEF775FE1B4907
:101590002068884230D11A4C0025206840F00200B3
:1015A00020602068174E00F0020005904FF4504074
:1015B00000900220CDE901050C20CDE903506946D9
:1015C0003046FFF769FA4FF40050CDE9000569464F
:1015D00030460295FFF760FA206840F00050206026
:1015E0002068002200F00050059011464D20FFF7C2
:1015F000B3FB4D20FFF7A2FB06B070BD0000044016
:10160000303802400004024070B50446C06801252D
:1016100070B1022801D0FFF70CF92946D4F8040470
:1016200002F08AF8D4F80404BDE8704002F045B82E
:101630000025F2E7D0F8040402F068B8D0F80404FA
:1016400002F06EB810B5044690F8BC0301280BD028
:10165000012084F8BC0384F83810206802F028FFC9
:10166000002084F8BC0310BD022010BDD0F8042473
:1016700000F57171104602F06BB810B504460068B1
:1016800094F8BC13012906D0012184F8BC13A16A87
:10169000012902D008E0022010BDA169012903D070
:1016A000816B41F480318163206802F09BFB2068EC
:1016B00002F074FE002084F8BC0310BD10B504468F
:1016C000D0F8040402F086F82068D0F8001E41F03B
:1016D0000101C0F8001E206A002804D002480168F9
:1016E00041F00601016010BD10ED00E02DE9F0476A
:1016F0000E46050065D0DFF81481D8F80000F7B277
:1017000000F00F00B04207D288F80070D8F800004F
:1017100000F00F00B04254D128683D4C810712D52B
:10172000400703D5206840F4E05020602878000787
:1017300003D5206840F4604020602068A96820F04C
:10174000F000084320602878C0072DD03049686831
:101750000839012812D0022813D0032811D00968B3
:10176000890700292DDA216821F003010143216056
:10177000FFF782FA814641F2883A0EE00968890350
:10178000EFE709688901ECE7FFF776FAA0EB0901BA
:10179000514502D90320BDE8F0872068696800F050
:1017A0000C00B0EB810FEFD1D8F80010404601F0EB
:1017B0000F01B14207D90770006800F00F00B04276
:1017C00001D00120E7E72878400705D52068E968BF
:1017D00020F4E050084320602878000706D52068F0
:1017E000296920F4604040EAC100206000F03EF822
:1017F0002168084AC1F30311515CC84006490860DA
:1018000006480068FFF760FA0020C4E7003C024089
:101810000838024060510008B4000020AC000020ED
:101820000148006870470000B400002004480549E2
:1018300000680968044AC1F38221515CC8407047BE
:10184000B4000020083802407051000804480549DF
:1018500000680968044AC1F34231515CC8407047CE
:10186000B40000200838024070510008154810B537
:10187000006810F00C02144813D04110042A0FD055
:10188000082A0ED10F4C241F2268236802F03F0261
:101890005B0207D52068C0F38810A0FB010106E0B9
:1018A000084610BD2168C1F38811A1FB0001002387
:1018B000FEF798FC2168C1F30141491C4900B0FBC7
:1018C000F1F010BD083802400024F4002DE9F84F73
:1018D00004006ED02078DFF83C93C007A9F104051E
:1018E0004AD009F104000168C1F38101012908D03F
:1018F0000068C0F3810002280AD1D9F80000400234
:1019000006D52868800337D560680028E1D033E029
:101910006068B0F5803F10D0B0F5A02F286810D0D7
:1019200020F480302860286820F4802028606068D7
:10193000A8B1FFF7A1F906460DE0286840F4803011
:10194000F4E740F480202860F7E700BFFFF794F940
:10195000801B642873D828688003F7D50CE0FFF754
:101960008BF9064605E000BFFFF786F9801B642867
:10197000F0D828688003F7D42078DFF89C828007AD
:101980004FF0000A3ED5A348001D016811F00C0F6E
:1019900008D00068C0F3810002280BD1D9F80000FC
:1019A000400207D42868800716D5E068012800D1D6
:1019B00012E02BE1E068B8B10120C8F80000FFF7A1
:1019C0005BF9064605E000BFFFF756F9801B0228C9
:1019D000C0D828688007F7D52868216920F0F8006A
:1019E00040EAC10028600DE0C8F800A0FFF744F904
:1019F000064604E0FFF740F9801B02281FD828683C
:101A00008007F7D42078000722D5824E8348616989
:101A1000703671B101210160FFF72EF9074604E02D
:101A2000FFF72AF9C01B022809D830688007F7D5CC
:101A30000EE0C0F800A0FFF71FF9074605E082E0BE
:101A4000FFF71AF9C01B02287DD830688007F7D449
:101A50002078400768D5DFF8BCB100270BF13C0BBC
:101A6000DBF80000C0000BD4DBF8001041F080511F
:101A7000CBF80010DBF80000012700F08050009048
:101A8000674E3068C00510D4306840F48070306014
:101A9000FFF7F2F8009005E0FFF7EEF80099401A22
:101AA000022850D83068C005F6D55A4EA0686C366A
:101AB00001280FD00528306810D020F001003060D8
:101AC000306820F004003060A068B8B1FFF7D4F8A7
:101AD00000900FE0306840F00100F4E740F00400AF
:101AE0003060F7E7FFF7C8F80099411A41F28830F3
:101AF000814266D830688007F4D50EE0FFF7BCF865
:101B0000009007E0FFF7B8F80099411A41F28830D9
:101B1000814256D830688007F4D42FB1DBF800102A
:101B200021F08051CBF80010A069C8B33949091DD4
:101B30000968C1F3810102294AD00228504607D022
:101B4000C8F8600000E03CE0FFF796F804463BE090
:101B50004746C8F86000FFF78FF8064605E000BF6B
:101B6000FFF78AF8801B02282BD828688001F7D459
:101B7000D4E907010843A16A2A4A490802EB014156
:101B8000626A41EA8211084394F82C1040EA01612C
:101B9000C9F8001001203866FFF76EF8044606E029
:101BA00036E000BFFFF768F8001B022809D8286854
:101BB0008001F7D52CE000BFFFF75EF8001B02287C
:101BC00002D90320BDE8F88F28688001F4D41FE013
:101BD0000128F7D0D9F80000E26900F480019142B1
:101BE00014D1226A00F03F0191420FD147F6C07133
:101BF000626A0140914209D1A26A00F440319142E7
:101C000004D1E16A00F07060884201D00120D9E778
:101C10000020D7E70438024000004742800E4742C8
:101C2000007000400000FFFF70B515460E4604002E
:101C300003D094F8490010B107E0012070BD0020E6
:101C400084F84800204600F01AF804F108012068E2
:101C5000FEF710FE3146A2682068FEF741FED4E987
:101C600001022946236BFEF7E5FDA168206850F8C4
:101C7000212042F0010240F82120002070BDFEF733
:101C800081BE10B5401EB0F1807F01D3012010BD90
:101C90004FF0E02460610F21601702F0B3FC0020D8
:101CA000A06107202061002010BD70477047000030
:101CB00070B590F83C20012A32D0012480F83C40D5
:101CC000022280F83D2003685A689D6822F0700661
:101CD0000A6832435A60134B02689A4214D0B2F138
:101CE000804F11D0104B9A420ED0104B9A420BD01D
:101CF0000F4B9A4208D00F4B9A4205D00E4B9A4296
:101D000002D00E4B9A4204D1496825F08003194352
:101D1000916080F83D40002180F83C10084670BD7D
:101D2000022070BD00000140000400400008004097
:101D3000000C004000040140004001400018004039
:101D400010B5040003D094F83D0010B107E0012065
:101D500010BD002084F83C00204600F00DF8022061
:101D600084F83D00211D206800F0B4FE012084F8B5
:101D70003D00002010BD000008B50068B0F1804FA4
:101D800012D10A48016841F0010101600068002297
:101D900000F00100009011461C20FEF7DDFFBDE8B9
:101DA00008401C20FEF7CABF08BD000040380240B2
:101DB000022180F83D1001688A6802F00702062AB5
:101DC00003D00A6842F001020A60012180F83D1048
:101DD0000020704770B5044690F83C00012817D0E9
:101DE000012584F83C50022084F83D002068826878
:101DF00022F0770222F47F4282600868502830D0B7
:101E00000DDC20284DD005DC98B310283BD148E0EC
:101E1000022070BD302844D0402834D139E06028F9
:101E200028D0702806D0B0F5805F2CD0B0F5005FC8
:101E300029D10AE0CB68D1E90121206800F0AEFE8B
:101E40002068816841F0770109E0CB68D1E9012180
:101E5000206800F0A3FE2068816841F48041816021
:101E600011E0CA684968206800F0AAFE5021206885
:101E700007E016E0CA684968206800F0B2FE6021F9
:101E8000206800F095FE84F83D50002084F83C0066
:101E900070BDCA684968206800F092FE4021206841
:101EA000EFE7226801461046EBE7704770B504463D
:101EB000006801694FF00005C943890715D4C1685E
:101EC000C943890711D4E91E0161012020772068E8
:101ED00080698007204602D0FFF7E7FF04E000F0AA
:101EE00098F8204600F096F8257720680169C943E4
:101EF000490717D4C168C943490713D46FF00401D7
:101F00000161022020772068806910F4407F20461C
:101F100002D0FFF7CAFF04E000F07BF8204600F093
:101F200079F8257720680169C943090716D4C16883
:101F3000C943090712D46FF008010161042020771A
:101F40002068C0698007204602D0FFF7AEFF04E09A
:101F500000F05FF8204600F05DF825772068016901
:101F6000C943C90617D4C168C943C90613D46FF061
:101F700010010161082020772068C06910F4407FBB
:101F8000204602D0FFF791FF04E000F042F820461F
:101F900000F040F8257720680169C943C90708D1D6
:101FA000C168C943C90704D1891E0161204600F0F8
:101FB00032F820680169C943090609D4C168C943D8
:101FC000090605D46FF0800101612046FFF76DFE20
:101FD00020680169C943490609D4C168C943490653
:101FE00005D46FF040010161204600F015F820682B
:101FF0000169C94389060BD4C168C943890607D45E
:102000006FF0200101612046BDE87040FFF74EBE31
:1020100070BD7047704770477047704770B5026871
:1020200004461068D168536910F00F0F52D003F0C6
:10203000010501F490762E435FD0C20705D0CA0592
:1020400003D5E26B42F00102E263420705D5DA07ED
:1020500003D0E26B42F00202E263820705D5DA07A1
:1020600003D0E26B42F00402E263020707D501F0FD
:1020700020022A4303D0E26B42F00802E263E26BE3
:10208000002A33D0800604D5880602D5204600F009
:10209000D7FD20684069E16BC0F38010090700D4C8
:1020A00028B3204600F0BEFD2068416949061AD5D4
:1020B000416921F040014161606BA0B11B4901659C
:1020C000606BFEF73BFC002810D0606B016DBDE833
:1020D00070400847830610D58B060ED52046BDE814
:1020E000704000F0ADBD2046FFF797FF70BD204661
:1020F000FFF793FF0020E06370BD030606D50B06D3
:1021000004D52046BDE8704000F07ABE4006F3D505
:102110004806F1D5D168204621F04001D160202148
:1021200084F8391000F0D2F870BD0000152C0008BA
:1021300070B5040004D094F83900002510B106E011
:10214000012070BD84F83850204600F023F8242088
:1021500084F839002068C16821F40051C16020462C
:1021600000F0BAFD2068016921F490410161206806
:10217000416921F02A0141612068C16841F40051A0
:10218000C160E563202084F8390084F83A0000201B
:1021900070BD000010B586B0044614216846FEF7F5
:1021A0006BF818492068884229D11748016841F422
:1021B00000210160006800F40020059012481038EA
:1021C000016841F0040101600068694600F0040004
:1021D00005904FF440600090022001900120029091
:1021E00003200390082004900848FEF755FC0022C5
:1021F00011463420FEF7B0FD3420FEF79FFD06B0F7
:1022000010BD0000004C0040403802400008024071
:1022100070472DE9F843044690F839001F461646EA
:102220000D46202850D1B5B1AEB194F83800012840
:102230004AD0012084F838004FF00008C4F83C80F0
:10224000212084F83900FEF717FDA6848146E68434
:1022500084F8388026E00120BDE8F883E08C401E39
:10226000E084A0684B46B0F5805F4FF000024FF06D
:1022700080012046009703D000F0F3FDE8B90DE09F
:1022800000F0EFFDC8B928882168C0F30800486055
:10229000206908B16D1C05E0AD1C03E0216815F84C
:1022A000010B4860E08C0028D8D14B460022402129
:1022B0002046009700F0D5FD08B10320CCE7202090
:1022C00084F839000020C7E70220C5E77047FEE721
:1022D000F0B500230A24302537261F4611E000BF41
:1022E000B4EB107F02D905EB107C01E006EB107C0B
:1022F00001F813C001EB430C00015B1C8CF801706A
:10230000DBB29342ECD3F0BD00B587B01C21684628
:10231000FDF7B2FF16484FF0204110220160154929
:102320004160022181600021C160C0E90412816125
:10233000C16113020162C0E90913C1620163416313
:102340008163C16341640F20FF230090CDE9010345
:10235000CDE903021120CDE90501002269460448B8
:10236000FFF762FC002801D0FEF763FA07B000BD5A
:10237000D8010020040100A02DE9F04F87B01421FE
:102380006846FDF779FF8D480024016841F004019B
:102390000160016801F004010591016841F020012C
:1023A0000160016801F020010591016841F08001A0
:1023B0000160016801F080010591016841F00101AF
:1023C0000160016801F001010591016841F002011D
:1023D0000160016801F002010591016841F04001CE
:1023E0000160016801F040010591016841F01001B0
:1023F0000160016801F010010591016841F00801D8
:1024000001600068002200F00800059016216C4869
:10241000FEF72CFC002280216A48FEF727FC0022F0
:102420004FF4C0416848FEF721FC4FF46070009003
:102430000225CDE901540520CDE90340634F6946EB
:102440003846FEF729FB68020090CDE901540E26BC
:10245000CDE9034669463846FEF71EFB162000907C
:102460000127CDE90174694655480394FEF714FB32
:10247000DFF85C8148F20700CDE900086946029464
:102480005048FEF709FB41F658000090CDE9015491
:10249000CDE9034669464B48FEF7FEFA80200090DE
:1024A000CDE90174694647480394FEF7F5FA202008
:1024B000CDE90008694602944148FEF7EDFA4FF075
:1024C0000309CDF80090CDE901544FF0090ADFF877
:1024D00004B1CDE9034A69465846FEF7DDFA4FF0EC
:1024E0000408CDE90084694658460294FEF7D4FA00
:1024F0004FF470600090CDE90154CDE90346694680
:102500005846FEF7C9FA4FF40C600090CDE901542B
:10251000CDE9034669462C48FEF7BEFAC02000907C
:10252000CDE90154CDE9034669462548FEF7B4FAE2
:1025300028024FF0120BCDE9000BCDE90274694679
:10254000CDF810801E48FEF7A7FAE801CDE9000B90
:10255000CDE902746946CDF810801A48FEF79CFA5E
:102560004FF4C060CDE9000502940720CDE9039047
:1025700069461448FEF790FA48200090CDE90154CE
:10258000CDE9034669461448FEF786FA4FF4A05099
:102590000090CDE90154CDE9034A69460A48FEF7A7
:1025A0007BFA4FF4C0400090CDE9017469460648BB
:1025B0000394FEF771FA07B0BDE8F08F303802409F
:1025C00000080240000002400018024000140240CF
:1025D0000000121000040240000C024010B586B04A
:1025E00000241648009401940294039404944FF03C
:1025F0008041059401604FF47A51C0E901141049FB
:10260000C0E903148461FFF79BFB08B1FEF711F9E1
:102610004FF48050009069460848FFF7DBFB08B193
:10262000FEF707F9049404A904480594FFF740FB5A
:10263000002801D0FEF7FDF806B010BD28020020EA
:1026400040420F000C4810B50A4901604FF4E131D7
:102650004160002181600C22C160C0E904128161E7
:10266000C161FFF765FD002803D0BDE81040FEF70B
:10267000E0B810BD004C00406802002010B50122F7
:102680000F49104800F0F2FE08B1FEF7D2F80E49EB
:102690000C4801F0C7F808B1FEF7CBF80B49094820
:1026A00000F00BFD08B1FEF7C4F8064801F034F95C
:1026B000002803D0BDE81040FEF7BBB810BD0000F5
:1026C00044000020A8020020940100209400002073
:1026D000FEE770470148FEF7BFBC00007805002008
:1026E0002DE9F04103680D4604461E6C03EB4511CD
:1026F000D1F8080BD4F810E04FF400474FF0200C4D
:1027000004F57172BEF1010F09D0DFF898E076454B
:1027100039D1020432D500BFC1F8087B3FE0224B1B
:102720005FEA007E04D59E4239D90004F4D436E035
:102730005FEA806E02D5C1F808CB30E010F0280FB8
:102740002DD19E4201D90004E6D4C5EBC50004EBAF
:102750008000D1F8101BD0F80432C1F31201591ACD
:10276000C0F81412D0F808121944C0F8081295B92C
:10277000D4F8100278B9012120680AE080060AD551
:10278000C1F808CB07E035B9D4F8100218B9002118
:10279000184601F08BFCE9B22046FEF743FB00200F
:1027A000BDE8F0810A31544F0A30544F2DE9F84FFB
:1027B0000E46C1EBC60100EB810481460568D4E9F1
:1027C00014103C34884202D90120BDE8F88F081A61
:1027D000A168814200D20846C01C870805EB461854
:1027E0001BE000BFA0EB010AA068504500D2824662
:1027F0000AF10300870899F8100000901FFA8AF385
:10280000F2B22846E16801F0D9FEE16801EB0A0066
:10281000E060A16901EB0A00A061D8F8180980B254
:10282000B84205D3D4E90501814201D20028D9D1AB
:10283000D4E90501884208D806F00F01012088403C
:10284000D5F834188143C5F834180020BDE7704727
:1028500070B502F0B1FB02F0A7FB00234FF6FF7446
:102860004FF480252146184600F0CCF8184600F0B9
:10287000B9F8A04202D15B1CAB42F3D3BDE8704073
:1028800001A001F0AFBE00000A0D2D2D2D2D2D2D24
:102890002D2D456E64206F66207772697465206FF8
:1028A0006E65732D2D2D2D2D2D2D2D0A0D00000063
:1028B00070B5284C00202DED028B0346E0624FF4EA
:1028C00080262063184600F08DF8054602F048FB8C
:1028D000E16A0844E062284602F044FB216B5B1C7D
:1028E00008442063B342EDD31BA0E16A01F07AFEF5
:1028F00023A0216B01F076FE94ED0C0A9FED2A8A4D
:10290000DFED2A8AB8EE400A20EE080A20EE280AF7
:1029100010EE100AFDF72AFD41EC100B24A053EC39
:10292000102B01F05FFE94ED0B0AB8EE400A20EE8A
:10293000080A20EE280A10EE100AFDF717FDBDEC7C
:10294000028B41EC100BBDE8704053EC102B1FA024
:1029500001F048BE000000200A546F74616C206EC4
:10296000756D626572206F66206F6E657320696E8B
:10297000205352414D3A2020256C750D0A0000006D
:10298000546F74616C206E756D626572206F662085
:102990007A65726F7320696E205352414D3A202040
:1029A000256C750D0A000000000080340000C8424C
:1029B00050657263656E74207A65726F733A202079
:1029C000252E336625250D0A000000005065726330
:1029D000656E74206F6E65733A2020252E33662550
:1029E000250D0A000249096831F8100070470000FF
:1029F000000000200249096851F8100070470000EB
:102A000000000020024A126822F8101070470000EF
:102A10000000002070470178407841EA00207047AC
:102A2000FEF730B930B593B030216846FDF724FC8D
:102A300014210CA8FDF720FC1A480025016841F07C
:102A400080510160006800F08050119016480168C4
:102A500041F4404101600068022400F440401190BC
:102A600001200090000401908001CDE9064008207B
:102A700008904FF4A870CDE9090407200B90684630
:102A8000FEF724FF0CA90F2081E831004FF4A0507D
:102A90000F90E002109005210CA8FEF727FE13B05E
:102AA00030BD000040380240007000400548016819
:102AB00041F47001016003494FF000608039086003
:102AC0007047000088ED00E00148FFF7EFB9000013
:102AD00028020020F0B50268254C264D264E274FCF
:102AE000274B4FF0804CA04209D0604507D0A84248
:102AF00005D0B04203D0B84201D0984204D122F0B0
:102B0000700E4A6842EA0E02A0421BD0604519D0FE
:102B1000A84217D0B04215D0B84213D0984211D075
:102B2000184DA8420ED0184DA8420BD0174DA84200
:102B300008D0174DA84205D0164DA84202D0164D18
:102B4000A84203D122F44075CA682A434D6922F095
:102B500080022A4302608A68C2620A688262A042D6
:102B600001D0984201D10969016301214161F0BDA1
:102B7000000001400004004000080040000C00403C
:102B80000004014000400140004401400048014071
:102B900000180040001C00400020004010B5846870
:102BA00042EA032224F47F440A432243826010BD98
:102BB000826822F070020A4342F007018160704788
:102BC00010B5036A046A24F001040462846924F0E5
:102BD000F00444EA021423F00A020A438461026208
:102BE00010BD10B5036A23F0100303628369046A01
:102BF00023F4704343EA023224F0A00343EA0111B4
:102C00008261016210BD00000148FFF707BA0000B1
:102C10006802002010B5806B0021C185C184FFF7D8
:102C2000FCF910BD0168CA6822F49072CA6001689C
:102C30004A6922F001024A61202180F83A10704767
:102C400010B590F83A10222901D0022010BD8168F9
:102C5000B1F5805F11D00169002901681FD0496872
:102C600001F07F03816A4A1C82620B70C18D491E8C
:102C70000904090CC18518D02BE00269816A002A79
:102C80000268526805D0D2B20A80816A491C81620A
:102C9000ECE7C2F308020A80816A891CF7E74A68F8
:102CA000816A4B1C83620A70E0E70168CA6822F0FF
:102CB0002002CA600168CA6822F48072CA60016892
:102CC0004A6922F001024A61202180F83A10FFF798
:102CD0009FFA002010BD00002DE9F0410446006875
:102CE0000169E26821F44051114301612169A06842
:102CF000E26908436169114308432168CA6849F2DF
:102D00000C639A430243CA6020684169A26921F4B6
:102D1000407111434161E069192764253226B0F5FD
:102D2000004F354A354920684FF0000806D08842E8
:102D300001D0904236D1FEF789FD35E0884201D0BE
:102D4000904202D1FEF782FD01E0FEF76FFD61685F
:102D50004A18A0FB070148EB0803FDF743FA0146B8
:102D6000B0FBF5F00201B1FBF5F06FF0180358432A
:102D700001EB800006EBC000B0FBF5F000F0F800BE
:102D800002EB4002B1FBF5F0584301EB800006EB8B
:102D9000C000B0FBF5F000F0070021681044886027
:102DA000BDE8F081FEF742FD61688B0F8A00A0FB51
:102DB0000701FDF717FA0146B0FBF5F06FF01802B6
:102DC000504301EB800006EB0010B0FBF5F000F083
:102DD000F002B1FBF5F002EB0012B1FBF5F06FF081
:102DE0001803584301EB800006EB0010B0FBF5F030
:102DF00000F00F00D1E70000001401400010014076
:102E000090F83910212901D0022070478168B1F56E
:102E1000805F016A0BD04A1C026202680978516027
:102E2000C18C491E0904090CC1840ED017E0098821
:102E30000268C1F30801516001690029016A02D0EA
:102E4000491C0162ECE7891CFBE70168CA6822F0B3
:102E50008002CA600068C16841F04001C160002082
:102E600070472DE9F041984617460E460446069DE8
:102E70001DE0681C1BD02DB1FDF7FEFEA0EB080085
:102E8000A84214D92068C16821F4D071C1602068BB
:102E9000416921F001014161202084F8390084F862
:102EA0003A00002084F838000320BDE8F081206853
:102EB000006836EA000004D00020B842D9D00020D3
:102EC000F3E70120F9E72DE9F0410C46D0F8C432D0
:102ED000D0F8BC12F9B104EB840200EB82020026A8
:102EE00095694DB1C4EBC40703EB87035B6CB5FB7D
:102EF000F3F703FB175383B1C1F81462D0F8C00293
:102F0000D1F8085222460369284601F50471984712
:102F10000020BDE8F0810320FBE7002396611A46FC
:102F2000214600F060FCF3E770B5D0F8BC420546DE
:102F30006CB100F061FBC4F80C02D5F8C012D4F8F3
:102F40000402CA6804F503719047002070BD032095
:102F500070BD70B504460026812100F0AAFA002554
:102F600025870121204600F0A4FAA4F87851822197
:102F7000204600F09EFAA4F84C50A4F84E50D4F825
:102F8000BC0248B1D4F8C00204F52F7440688047F1
:102F9000206801F0BDFF2560304670BD10B5D0E956
:102FA000AF4159B194F80002FF2807D08B6894F81C
:102FB000012221469847FF2084F80002002010BD1E
:102FC0000A21018000487047BC0000204321018095
:102FD000004870470C0100204321018000487047E1
:102FE000C8000020432101800048704750010020A4
:102FF0002DE9F04704464FF4077002F05DF8050034
:103000004FF0000735D0C4F8BC52207C4FF01008B8
:103010004FF40079012680B340230222812120460B
:1030200000F036FB2687402302220121204600F0D3
:103030002FFBA4F87861A4F84E8008230322822194
:10304000204600F025FBA4F84C60D4F8C0020068CC
:103050008047C5F81472C5F81872207CD5F8042290
:10306000A8B140230121204600F01EFB0020BDE84E
:10307000F0870220C4F8BC72F9E7FFE74B46022252
:103080008121204600F004FB26874B46CCE74B46C7
:10309000E8E710B5D0F8BC1251B1027C002AD1F893
:1030A000042207D04023012100F0FEFA002010BDC9
:1030B000032010BD4FF40073F5E719B1C0F8C0123A
:1030C0000020704703207047D0F8BC02C0F80412FB
:1030D00000207047D0F8BC02C0F81022C0F80812D7
:1030E000002070472DE9FC410546D0F8BC72002055
:1030F0008DF80000ADF80400064608780C4610F084
:10310000600121D020293DD1E288AAB10006607873
:1031100007D5D5F8C0128B6839469847E2883946FA
:1031200028E087F80002A07987F80102E288394692
:10313000284600F052F82AE0D5F8C0126078002244
:103140008B682146984722E0607830B101281ED074
:103150000A2809D00B2815D110E095F89C02032805
:1031600010D1022201A905E095F89C02032809D19B
:1031700001226946284600F04AF808E095F89C02CA
:10318000032804D02146284600F01CF803263046C8
:10319000BDE8FC8110B5D0F8B8220AB1526890475A
:1031A000002010BD134610B50A46002100F07CFA3D
:1031B000002010BD134610B50A46002100F013FB95
:1031C000002010BD10B50446802100F0F1FA204621
:1031D000BDE81040002100F0EBBA10B50323C0F8A1
:1031E0005821C0F89432C0F85C2113460A460021E9
:1031F00000F05AFA002010BD10B505210023C0F8D8
:1032000094121A46194600F04FFA002010BD10B56E
:1032100002238261C0F89432C26113460A4600213B
:1032200000F0E1FA002010BD10B504210023C0F821
:1032300094121A46194600F0D6FA002010BDF8B5CF
:1032400004460020ADF8000048880D46010A082910
:103250005FD2DFE801F05E0409175E5E3C45D4F8FA
:10326000B412207C0A6819E0207C02260028D4F8D9
:10327000B80205D0C16A684688470146467039E001
:10328000816AF8E7C0B2062843D2DFE800F0030AFB
:103290001014181CD4F8B402426805E0694690473F
:1032A0001CE0D4F8B402826892B3207CF6E7D4F82C
:1032B000B402C268F8E7D4F8B4020269F4E7D4F8BB
:1032C000B4024269F0E7D4F8B4028269ECE7207CEA
:1032D000F0B9D4F8B802416B68468847014609E066
:1032E000207CA8B9D4F8B802016B6846884701462B
:1032F00007204870EA888AB1BDF8000040B18242D8
:1033000000D90246ADF800202046FFF780FFF8BD47
:10331000FFE729462046FFF755FFF8E72046FFF76D
:1033200083FFF4E770B5002300281ED00025044673
:1033300002E06D1CEDB2641C2678002EF9D1022447
:1033400004EB450414801278CA545B1C0322CA544F
:1033500000245B1C06E0CA545B1CDAB28C54521C7D
:10336000D3B2401C0278002AF5D170BD01004FF0A5
:10337000000004D0012901D0022901D003207047A8
:103380000120704710B50A46024903A0FFF7CAFFA3
:10339000004810BD8009002043444320436F6E66FF
:1033A0006967000012200880004870476400002010
:1033B00010B50A46024903A0FFF7B4FF004810BD4C
:1033C0008009002043444320496E7465726661633E
:1033D000650000000420088000487047600000205D
:1033E00010B50A46024903A0FFF79CFF004810BD34
:1033F0008009002053544D6963726F656C65637476
:10340000726F6E696373000010B50A46024903A02B
:10341000FFF788FF004810BD8009002053544D334A
:1034200032205669727475616C20436F6D506F72F3
:103430007400000010B51A2008800A480168001DB9
:103440000468001D0068081809D008220649FEF724
:103450003FFF0549042210312046FEF739FF02489C
:10346000801E10BD107AFF1F7A00002030B4A0B17A
:10347000D0F8B84200230CB1C0F8B832D0F8CC4232
:103480000CB1C0F8CC3209B1C0F8B412012180F8F7
:103490009C12027030BC00F0B3B830BC03207047FF
:1034A00010B5D0F8C402FDF7F1FCBDE81040FFF7FD
:1034B0005DBF10B5D0F8C402FDF7C2FCBDE81040F6
:1034C000FFF754BF70B51646044649B1D4F8B802A8
:1034D00042691AB194F89C02032842D0032070BDBF
:1034E000D4F89412002504F11400022932D1D0E955
:1034F00002318B4206D95A1A826031462046FFF7C4
:1035000059FE0FE0994214D14068884211D3D4F893
:10351000981288420DD2002211462046FFF74AFE3B
:10352000C4F8985200231A461946204600F0BCF809
:1035300010E0D4F8B802C16829B194F89C020328BD
:1035400001D1204688478021204600F031F92046ED
:10355000FFF752FE94F8A002012806D184F8A05289
:1035600003E0204690470028B9D1002070BD10B577
:103570001346044649B1D4F8B80282691AB194F8E6
:103580009C02032824D0032010BDD4F8941204F523
:10359000AA70032920D1D0E9021291420AD98A1ACD
:1035A0008260C068824200D3024619462046FFF777
:1035B000F9FD11E0D4F8B802016929B194F89C0230
:1035C000032801D1204688472046FFF72DFE03E05F
:1035D000204690470028D7D1002010BD002070471A
:1035E00010B5012180F89C12D0F8B82212B15268AF
:1035F00001799047002010BDD0F8C402FDF774BCDB
:1036000010B50178012929D115490222C1F8040415
:10361000C0F8C41213480860062048600020C1E9C1
:103620000320C1E9062008624862C8620863486353
:103630000846FDF733FF08B1FDF7FBF84FF40071C2
:103640000748FDF7BCFB802200210548FDF7BBFBC6
:103650004FF4BA7201210248FDF7B5FB002010BDFE
:1036600078050020000004400A0601F07F01D0F830
:10367000C402C1EBC10100EB810002D590F83E000D
:10368000704790F8FE017047002070470020704797
:1036900010B51C461346D0F8C4022246FDF72DFC97
:1036A000BDE81040FFF762BE10B5D0F8C402FDF7C8
:1036B00054FCBDE81040FFF759BE70B50125044623
:1036C00080F89C520020C4F894026060C4F8A40200
:1036D000D4F8BC0228B1D4F8B802002142682046D0
:1036E00090470022402311462046FFF7D1FF402695
:1036F000A4F864513346002280212046C4F860615A
:10370000FFF7C6FFA5840020266270BD90F89C12CA
:10371000042903D190F89D1280F89C120020704774
:1037200010B590F89C12032904D1D0F8B812C969D9
:1037300001B18847002010BD01740020704710B50A
:10374000D0F8C402FDF77EFFBDE81040FFF70EBEC3
:1037500070B5044600F2AA20054600F04DF801209D
:10376000C4F89402B4F8B002C4F8980294F8AA021B
:1037700010F01F010AD001290ED0022912D000F04A
:1037800080012046BDE8704000F012B8294620466E
:10379000BDE8704000F0C2B829462046BDE8704040
:1037A00000F0ECB929462046BDE8704000F040B971
:1037B00010B5D0F8C402FDF7F4FBBDE81040FFF7E8
:1037C000D5BD10B5D0F8C402FDF757FFBDE81040D5
:1037D000FFF7CCBD90F89C1280F89D12042180F870
:1037E0009C120020704710B5D0F8C402FDF713FCFE
:1037F000BDE81040FFF7BABD70B5054611F8010BE2
:103800002870087868704C1C2046FFF704F968801F
:10381000A41C2046FFF7FFF8A880A01CFFF7FBF8C8
:10382000E88070BD38B504460020ADF8000041B115
:10383000C4F8B812896A68468847C4F8CC020020E8
:1038400038BD032038BD02460320D2F8B832002B21
:1038500002D01B6810461847704700002DE9F04160
:103860000F462C4E8978002504463170012906D96F
:1038700039462046FFF7A6FC0320BDE8F08194F806
:103880009C0202280CD003281DD039462046FFF7A1
:1038900099FC31782046FFF77DFC03252846ECE7AC
:1038A00099B320466160FFF7CEFF050004D039468A
:1038B0002046FFF787FCF1E72046FFF7B5FC032021
:1038C00084F89C02EAE74FF00208C1B160688842C0
:1038D0001BD0C1B22046FFF75DFC31782046616005
:1038E000FFF7B1FF050010D039462046FFF76AFC0C
:1038F00021792046FFF74EFC84F89C82CEE784F8BD
:103900009C8220466160FFF745FC2046FFF78CFC57
:10391000C4E70000B8000020FFF753BF2DE9F041D5
:103920000A78002512F0600208D0202A01D0402A2F
:1039300071D1D0F8B8229268904731E04B780022DC
:1039400001260A2B67D2DFE803F0415E665866085D
:1039500005662D29FFF773FC5FE004468888D8B917
:10396000C888C8B94888802816D200F07F0794F824
:103970009C02032810D084F89E7239462046FFF737
:10398000DEFE2046FFF750FC1FB1022084F89C02A7
:1039900043E084F89C6240E020463CE0FFF75EFF95
:1039A00005463AE0CB88012B35D190F89C32012BAB
:1039B00004D0022B02D0032B2DD104E0826001221F
:1039C00000F1080116E00122011D13E090F89C228D
:1039D000012A03D0022A01D0032A1CD1CA88022A54
:1039E00019D1C660D0F8A41209B10321C160022226
:1039F00000F10C01FFF70BFC0FE0498801290CD105
:103A0000C0F8A46211E090F89C32012B08D0022B80
:103A100006D0032B04D0FFF7D5FB2846BDE8F08184
:103A200049880129F9D1C0F8A422FFF7FDFBF4E78A
:103A30002DE9F0410D46044628780027097910F059
:103A400060000BD0202801D0402873D1D4F8B802F0
:103A5000294682682046904707468CE06878D8B3AC
:103A6000012822D0032865D194F89C02022802D0B4
:103A700003287CD10BE0002979D0802977D020461B
:103A8000FFF796FE80212046FFF792FE73E06888DC
:103A900038B931B1802904D0E88810B92046FFF741
:103AA00087FE2046FFF7C0FB65E094F89C020228E1
:103AB000E1D003285BD16888D8BB480602D02046F5
:103AC000FFF7EEFC2046FFF7AFFBD4F8B80229461B
:103AD0008268204690474EE0FFE794F89C0200265B
:103AE000022802D0032842D111E009B180293ED139
:103AF000080601F07F0000EB800004EB800101D597
:103B0000143101E001F5AA7102220E602BE00806D3
:103B100001F00F0000EB800004EB80000BD5808CDF
:103B200040B101F07F0000EB800004EB800514350C
:103B30000CE020E01BE0B0F86401C0B101F07F00B0
:103B400000EB800004EB800505F5AA7541B18029E2
:103B500006D02046FFF788FD10B10120286000E064
:103B60002E60022229462046FFF751FB03E029463A
:103B70002046FFF727FB3846BDE8F08170B50646C2
:103B8000087800240D4610F0600003D0202801D0F2
:103B9000402817D196F89C02012803D0022801D0B2
:103BA00003280FD1287901280CD8D6F8B8028268EA
:103BB000304690470446E888204306D13046FFF758
:103BC00033FB02E03046FFF7FDFA204670BD0000EF
:103BD00070B50A78012302F00F054E78AB401B4CFC
:103BE000D0F81C58012E17D045EA0343C0F81C3802
:103BF00000EB4210D0F8002B12040BD4D0F8002BAD
:103C00000B89C978C3F30A031A4344EA81410A4382
:103C1000C0F8002B002070BD9BB21D43C0F81C589B
:103C200000EB4210D0F800391B04F3D4D0F800396F
:103C30000D89C978C5F30A0589042B4341EA8251ED
:103C40000B432343C0F80039E4E700000080001074
:103C5000D0F800196FF30A01C0F80019D0F8041861
:103C600041F48071C0F804180020704770B5044614
:103C700006990A9E049D0D98012916D0E06840F02F
:103C80004000E060204600F02BF8A16B1EB321F449
:103C90008031A163012D07D1A16841F00601A16027
:103CA000A16841F02001A16070BDA16B21F48031B9
:103CB000A163E168094A1140E160E16821F4401123
:103CC000E160012803D1E06840F48010E060204604
:103CD00000F006F8DEE741F48031DAE7BFFFBDFF10
:103CE00001220C4902E0521C8A420BD80369002BC6
:103CF000F9DA026942F001020261012204E0521C79
:103D00008A4201D9032070470369DB07F7D10020FD
:103D100070470000400D030030B54C780A7801234D
:103D200000EB4212012C2CD0D2F8004B002C0BDA05
:103D3000D2F8004B44F00064C2F8004BD2F8004BBC
:103D400044F08044C2F8004BD0F83C580C7804F0A2
:103D50000F0403FA04F425EA0444C0F83C48D0F800
:103D60001C48097801F00F018B4024EA0341C0F898
:103D70001C18D2F8000B19490840C2F8000B0020AB
:103D800030BDD2F80049002C0BDAD2F8004944F0DB
:103D90000064C2F80049D2F8004944F08044C2F8F7
:103DA0000049D0F83C480D7805F00F0503FA05F5F9
:103DB000ADB2AC43C0F83C48D0F81C48097801F0DB
:103DC0000F018B4099B28C43C0F81C48D2F800090F
:103DD00003490840C2F80009D1E700000078F3EF7A
:103DE000007833EC10B5D0F8041821F00201C0F8C7
:103DF00004180320FCF7B4FD002010BD10B5D0F866
:103E0000041841F00201C0F804180320FCF7A8FDD3
:103E1000002010BD2DE9F04F00250E460446DDF8C8
:103E20002CC0DDF824B0109F2846294604EB800200
:103E3000C2F80411401C0F28F8D32046C7B1806B8C
:103E400020F40012A263A06B40F40022A263084693
:103E50008846C4F8000ED4F800182046C4F80018AC
:103E6000BCF1010F16D0D0F8001841F0030116E0A4
:103E7000D0F8040840F00202C4F80428A06B40F413
:103E80000012A263A06B20F40022A263A06B20F4B6
:103E90008022DBE7D0F800180BB141F00101C0F837
:103EA0000018102100F090FA00B10125204600F022
:103EB0007BFA00B101254046C4F81088C4F8148884
:103EC000C4F81C8800214FF000694FF0904A4FF66B
:103ED0007F3314E004EB4112D2F800C9BCF1000FAB
:103EE00006DA11B1C2F800A904E0C4F8009901E0B3
:103EF000C2F80009C2F81009C2F80839491C8E42FC
:103F0000E8D8002115E000BF04EB4112D2F800CB45
:103F1000BCF1000F06DA11B1C2F800AB04E0C4F83E
:103F2000009B01E0C2F8000BC2F8100BC2F8083B7E
:103F3000491C8E42E8D8D4F8101821F48072C4F8D5
:103F40001028A0616FF080406061BBF1000F03D1C9
:103F5000A06940F01000A061A06909490843A06170
:103F60000C9818B1A06940F00800A061012F03D19E
:103F7000A06904490843A0612846BDE8F08F00000D
:103F800000383C8004000040816821F0010181601C
:103F90000020704770B50D784E78434CEBB200EBC3
:103FA0004313012E1FD0D3F8100B6FF31200C3F888
:103FB000100BD3F8100B2040C3F8100B486908B160
:103FC00088684861D3F8100B40F40020C3F8100B48
:103FD000D3F8100B8C68C4F312042043C3F8100B01
:103FE000012A55D058E04E69002ED3F8106932D01E
:103FF0006FF31206C3F81069D3F810692640C3F8AE
:1040000010694E698C68A64200D94C61D3F81049FA
:1040100044F40024C3F81049D3F810494E69C6F39C
:1040200012063443C3F81049012A22D000EB45128E
:10403000D2F8003943F00443C2F800394A6932B378
:10404000D0F83428097801F00F03012199400A4380
:10405000C0F8342826E02640C3F81069D3F8104988
:1040600044F40024C3F81049D3F810496FF3120444
:10407000D8E7096919B100EB4512C2F8141900EB31
:104080004510D0F8001941F00441C0F8001909E0CA
:10409000C86808B1C3F8140BD3F8000B40F0044013
:1040A000C3F8000B002070BDFFFF07E010B5036CE4
:1040B000134CA34203D9D0F8003B002B1EDB002396
:1040C000C0F8103BD0F8103B43F40023C0F8103B7D
:1040D000D0F8103B43F01803C0F8103BD0F8103B69
:1040E00043F0C043C0F8103B012907D1C0F8142B9E
:1040F000D0F8001B41F08021C0F8001B002010BD4B
:104100000A30544F4A780B78012A00EB43100BD049
:10411000D0F8002B22F40012C0F8002BC978032934
:1041200014D0022912D017E0D0F8002922F400128E
:10413000C0F80029C978032901D002290CD1D0F890
:10414000001941F08051C0F8001905E0D0F8001BBB
:1041500041F08051C0F8001B002070470A784B786E
:10416000D1B200EB4110012B12D0D0F8001B002976
:1041700006DB2AB1D0F8001B21F08041C0F8001BFB
:10418000D0F8001B41F40011C0F8001B002070475C
:10419000D0F80019002906DB2AB1D0F8001921F067
:1041A0008041C0F80019D0F8001941F40011C0F89E
:1041B0000019EBE7F8B50C784F78774DE3B26FF064
:1041C000604600EB4313012F26D0D3F8104B6FF35A
:1041D0001204C3F8104BD3F8104B2C40C3F8104B0B
:1041E0004C69002C74D08D682C44641EB4FBF5F42B
:1041F000D3F8105BA4B206EAC4463543C3F8105B9B
:10420000D3F8105B8E686643C6F312042543C3F8E7
:10421000105B012A71D0A6E04F691FB3D3F8107963
:104220006FF31207C3F81079D3F810792F40C3F851
:1042300010794F698D682F447F1EB7FBF5F506EAAC
:10424000C545D3F810693543C3F81059D3F8105950
:104250004E69C6F312063543C3F81059CD78012DC7
:1042600010D01BE0D3F810692E40C3F81069D3F8C2
:10427000105945F40025C3F81059D3F810596FF3BD
:10428000120509E0D3F8105925F0C045C3F81059BC
:10429000D3F8105945F00055C3F81059012A18D029
:1042A00000EB4413D3F8004944F00444C3F8004938
:1042B000CC78012C2FD04A6962B3D0F83428097821
:1042C00001F00F03012199400A43C0F8342860E04F
:1042D00036E00A691AB100EB4413C3F81429C9780F
:1042E00001290FD1D0F80818C90500EB4411D1F805
:1042F000002903D442F0005202E030E042F0805244
:10430000C1F8002900EB4410D0F8001941F0044135
:10431000C0F800193DE0D0F80848E405D3F800499A
:1043200002D444F0005401E044F08054C3F8004942
:1043300000928A8A93B20A78C96800F03FF928E0AF
:10434000D3F8104B8D68C5F312052C43C3F8104BFE
:10435000D3F8104B44F40024C3F8104B59E7CA6853
:104360000AB1C3F8142BC97801290CD1D0F8080878
:10437000C005D3F8000B02D440F0005001E040F03B
:104380008050C3F8000BD3F8000B40F00440C3F892
:10439000000B0020F8BD0000FFFF07E0816841F03E
:1043A0000101816000207047002110220261054A4E
:1043B000491C914201D9032070470369DB06F7D4F9
:1043C00000207047400D03000022202343EA8111A2
:1043D00001610549521C8A4201D9032070470369D3
:1043E0009B06F7D400207047400D0300D0F8080862
:1043F00010F0060004D0022803D0062801D00F20B8
:10440000704702207047406900F001007047D0F803
:104410001818D0F81C08084080B27047D0F8181857
:10442000D0F81C080840000C704710B5D0F81038C0
:10443000D0F8342801F00F0400EB4110E24002F004
:104440000102D0F8080943EAC212104010BD00EB87
:104450004111D1F8081BD0F8140808407047416991
:10446000806908407047D21C10B59308002200F5FF
:10447000805002E00468521C10C19A42FAD30846E8
:1044800010BD10B5C26822F0C042C260012902D03E
:1044900029B1012010BDC16841F0005102E0C1689E
:1044A00041F08041C1603220FCF75AFA002010BD73
:1044B000D0F8002822F4FE62C0F80028D0F80028C6
:1044C0004FF4FE6303EA01110A43C0F800280020FC
:1044D00070470000022A3ED1264A274B0A449A42DE
:1044E00001D20F2138E0254A254B0A449A4201D2D5
:1044F0000E2131E0234A244B0A449A4201D20D2175
:104500002AE0224A224B0A449A4201D20C2123E09B
:10451000204A214B0A449A4201D20B211CE01F4A37
:104520001F4B0A449A4201D20A2115E01D4A1E4B34
:104530000A449A420FD31D4A1D4B0A449A4201D2A3
:10454000082109E01B4A11441B4A914201D207216C
:1045500002E0062100E00921C26822F47052C26024
:10456000C2684FF4705303EA81210A43C2600020FD
:1045700070470000405327FF00350C00401E1BFF12
:1045800040420F0000DC0BFF804F1200808CF9FED0
:1045900020D6130060B6E5FE60E3160000D3CEFE21
:1045A00040771B00C05BB3FEC091210000CA91FEA2
:1045B00020753800E05459FEE09C410010B5029C83
:1045C00064B9DB1C9C0800EB0230002300F580502E
:1045D00002E004C902605B1CA342FAD3002010BDB4
:1045E000FEE700000FB4054B10B503A9044A02987A
:1045F00000F0EAF810BC5DF814FB0000F94E00086A
:10460000CC0100200907090E002804DB00F1E0209E
:1046100080F80014704700F00F0000F1E02080F8EF
:10462000141D704702E008C8121F08C1002AFAD101
:1046300070477047002001E001C1121F002AFBD122
:10464000704700002DE9FF5F82B00021DDE90430F2
:10465000020DDDF840B0034318D044F61050A2F22A
:10466000FF3242431514119801281FD0A5EB0B000F
:10467000401C5FEA000A4FF000064E4FDFF8389109
:10468000B046504615D5CAF1000413E01198012434
:104690004AA3012801D16FEA0B010298119AC0E9DF
:1046A0000031C0E9024206B0BDE8F09FCBF1000046
:1046B000DFE704460021404A491842EB0450CDE9A7
:1046C000001012E0E00707D032463B46404649461C
:1046D000FBF798FF8046894632463B46104619460E
:1046E000FBF790FF06460F466410002CEAD1DDE987
:1046F0000401DDE90023BAF1000F06DAFBF782FFBF
:1047000042464B46FBF77EFF05E0FBF7C0FD424605
:104710004B46FBF7BCFD04460E460022284BFBF738
:10472000FBFF03D84FF0FF30014607E00022254B86
:1047300020463146FBF7BFFEFBF7D6FF102409E009
:10474000002C0ADB0A220023FBF74CFD039B3032CE
:104750001A55641E50EA0102F2D1641C039AC4F196
:1047600011031444119A012A03D0012208430DD1E8
:104770000AE0084304D000204FF0110B119072E7BB
:10478000A3EB0B056D1E0DE05B4504DD4FF0000251
:1047900005F1010504E003DA4FF00002A5F101057F
:1047A000002AECD002981199C0E90231C0E9004515
:1047B00079E70000000014400000F03F30000000E6
:1047C0000000F0430000E03F2DE9FF4F95B09B460D
:1047D0008946064600250FE2252877D10024274682
:1047E000F84A0121059400E0044316F8013F203BFC
:1047F00001FA03F01042F7D130782A2811D06FF077
:104800002F033078A0F13002092A16D8059A44F017
:10481000020402EB820203EB42021044761C059074
:10482000EFE759F8042B0592002A03DA504244F4CA
:104830000054059044F00204761C30782E2816D1DE
:1048400016F8010F44F004042A280DD06FF02F024F
:104850003078A0F13003092B09D807EB870302EB6E
:104860004303C718761CF3E759F8047B761C3078AD
:104870006C280FD006DC4C2817D068280DD06A2889
:1048800014D104E0742810D07A280FD10DE044F43C
:1048900000140AE044F4801401E044F440147278F7
:1048A000824202D104F58014761C761C307866288A
:1048B0000BD013DC582877D009DC002875D04528A8
:1048C000F6D04628F4D047281AD19DE118E0632895
:1048D00035D0642879D0652812D195E1702873D03D
:1048E00008DC6728F1D069286FD06E280DD06F28BA
:1048F00006D1B5E073282CD0752875D0782874D0EF
:104900005A46179990476D1C75E1C4F3025002286E
:1049100009D003280DD0D9F8001004280DD00D605F
:1049200009F1040967E1D9F80010EA17C1E900525A
:10493000F6E7D9F800100D80F2E70D70F0E719F8EE
:10494000041B8DF8001000208DF80100EA460120BC
:1049500003E059F804AB4FF0FF3061074FF000015E
:1049600002D40DE008F101018846B9420FDA804512
:10497000F8DB1AF808100029F4D108E008F1010169
:1049800088468142FADB1AF808100029F6D105980A
:104990005B46A0EB080721463846179A00F094FAC8
:1049A000284400EB080507E04DE029E10DE01AF886
:1049B000010B5A4617999047B8F10108F7D25B46A8
:1049C00021463846179A13E142E00A220092C4F3C6
:1049D00002524FF0000A022A08D059F804CB032AE9
:1049E0004FEAEC710AD00DE029E02AE009F1070155
:1049F00021F00702F2E802C1914609E00FFA8CFCAF
:104A00004FEAEC71042A03D14FFA8CFC4FEAEC71A7
:104A1000002907DA0A460021DCF1000C61EB0201F3
:104A20002D2202E0220504D52B228DF8042001223C
:104A300003E0E20701D02022F7E7904659E00A217F
:104A400002E010220DE010214FF0000A00910BE06F
:104A500010224FF0000A44F004040827009203E0FB
:104A600008224FF0000A0092C4F30252022A05D035
:104A700059F804CB0021032A08D009E009F1070105
:104A800021F00702F2E802C1914605E01FFA8CFC12
:104A9000042A01D10CF0FF0C4FF00008220728D5A2
:104AA000702806D0009B83F0100353EA0A0305D058
:104AB0000EE040228DF80420012208E05CEA0102A9
:104AC00006D030228DF804208DF805000222904691
:104AD000009B83F0080353EA0A030AD15CEA01024F
:104AE00001D1620705D530228DF804204FF001086E
:104AF0007F1E582804D034A003900EA802900DE029
:104B000036A0F9E753466046009AFBF76BFB8446F4
:104B10000398825C0298401E029002705CEA0100D9
:104B2000F0D1029806A9081A00F1200A600702D500
:104B300024F4803400E00127574502DDA7EB0A008A
:104B400000E0002000EB0A01009005984144401A63
:104B50000590E00306D45B462146179A059800F0BD
:104B6000B3F90544002706E001A85A46C05D17992D
:104B700090476D1C7F1C4745F6DBE0030CD55B4678
:104B80002146179A059800F09FF9054404E030206B
:104B90005A46179990476D1C0099481E00900029AD
:104BA000F5DC08E0029802995A460078491C029107
:104BB000179990476D1CBAF10001AAF1010AF1DCC6
:104BC00065E10000092801003031323334353637D1
:104BD0003839616263646566000000003031323349
:104BE00034353637383941424344454600000000E9
:104BF00000F058F90544761C307800287FF4ECADBD
:104C000019B02846BDE8F08F620700D4062709F1E5
:104C1000070222F0070CFCE80223E14603F00048FB
:104C20005FEA080C02D00FF2702C0DE05FEA045C22
:104C300002D50FF2682C07E05FEAC47C02D00FF2C5
:104C4000602C01E0AFF2700C4FF0FF3823F000430E
:104C5000CDF850C065280CD006DC452809D0462880
:104C60001DD047283DD13DE0662818D067287ED169
:104C700038E00021112F01DB112000E0781CCDE984
:104C8000000106A90EA8FFF7DDFCDDE90F010E9A71
:104C900003910021009207F1010A04914DE04FF0C9
:104CA00000400097CDE9011006A90EA8FFF7CAFC45
:104CB000DDE90F0203920E9B11990022DDF80CA092
:104CC0000093049211B9791C00EB010AB7EB0A00BA
:104CD00004D4C0F1FF3007F1010A0490AAEB0700E9
:104CE000019044E0012F00DA01270021112F01DD9E
:104CF000112000E03846CDE9000106A90EA8FFF713
:104D0000A1FCDDE90F010E9A0391002104910092AC
:104D1000BA4621070CD40399514500DA8A46BAF104
:104D2000010F05DD009AAAF10101515C302908D07C
:104D3000B84202DA10F1040F06DA0121CDE90110C0
:104D400015E0AAF10101E9E7002805DC0499014416
:104D50000491AAEB000102E0411C514500DD8A46A6
:104D60000499401A401C01904FF000400290200727
:104D700004D40198504501DBCDF8048000208DF863
:104D80004F0002980DF14F07B0F1004F25D02B20B6
:104D90000E9002984FF0020800280CDA4042029070
:104DA0002D200E9007E00A210298FBF7F2FA30312D
:104DB000029007F8011DB8F10001A8F10108F2DC2A
:104DC00002980028EFD1791E0E980870307800F014
:104DD000200040F0450007F8020D12A8C01B00F1AA
:104DE00007081498007800B1012000EB0A0101982F
:104DF00001EBE07105984144401A401E0590E00324
:104E000006D45B462146179A059800F05DF80544E4
:104E10001498007818B15A46179990476D1CE00312
:104E200024D55B462146179A059800F04DF80544B5
:104E30001CE00498002807DBDDE90301884203DD5C
:104E40000098405C179901E0179930205A46904726
:104E5000049805F10105401C04900198401E019042
:104E600004D12E205A46179990476D1CBAF10001C3
:104E7000AAF1010ADDDC05E017F8010B5A46179983
:104E800090476D1CB8F10001A8F10108F4DC5B4605
:104E90002146179A0598ABE62D0000002B00000074
:104EA000200000002DE9F041044600251E4617466B
:104EB000880404D405E039462020B0476D1C641EE8
:104EC000F9D52846BDE8F0812DE9F04104460025DA
:104ED0001E469046C80301D5302700E020278804ED
:104EE00004D505E041463846B0476D1C641EF9D52F
:104EF0002846BDE8F081000013B54FF6FF7301228C
:104F000069460248FDF785F900981CBD680200203B
:104F100010B5002821D0114B0022001F196803E0B2
:104F2000814203D80A4649680029F9D152B1136871
:104F3000841A9C4204D1006818441060104602E0B4
:104F4000506000E0186039B102680B1A934203D137
:104F50000B681A4402604968416010BDD00100200E
:104F600000F007B800B500F004F8C0F1100080B2FE
:104F700000BD45F2555200EA020102EA5000084421
:104F800043F2333200EA020102EA9000084440F69C
:104F90000F7101406FF0F00202EA10100844C1B234
:104FA00001EB1020704700000248002101624162BD
:104FB000C16170470000002003480021C162016305
:104FC00041638163704700000000002010B5FBF7CB
:104FD00061FEFDF727FDFDF7CFF9FDF795F9FDF728
:104FE00031FBFDF74BFBFDF7F9FA1448FCF7A8FE7F
:104FF0001248FCF7DDFE40F6B830FBF7B1FC10A01C
:10500000FFF7F0FA17A0FFF7EDFA00F08BF81B4C52
:105010001B48D4E90012A36AFFF7E4FAFDF748FC45
:1050200018A0E168FFF7DEFAFDF712FCFDF740FC7F
:105030001CA0FFF7D7FA002010BD000028020020B6
:105040000A0D57656C636F6D6520746F2073726114
:105050006D20505546204578706572696D656E7497
:10506000730D0A000D0A52656164696E6720535220
:10507000414D206D656D6F72790D0A0000000020B2
:10508000785100080D0A53657474696E6720535295
:10509000414D2076616C75657320746F20257820F2
:1050A0002E2E2E000D0A7E7E7E7E7E7E7E7E7E7E73
:1050B0007E7E7E7E7E0D0A00F0B50B30154D20F011
:1050C00007010024144A0FE003688B420BD38B4284
:1050D00005D95E1A43184768C3E9006700E04368D2
:1050E000136002C004E0021D10680028ECD12046C5
:1050F000002802D1286808B10020F0BD064A074800
:105100001060074A121A22F00702C0E900240120A9
:105110002860D7E7D4010020D0010020841B0020A4
:10512000801D002070B50B4D00200024A8620420D3
:105130000604A861A86A401CA8622046FDF75AFC34
:10514000024604F1C84104A0FFF74CFA241DB44202
:10515000F0D370BD0000002025783A25780D0A00B4
:105160000000000000000000010203040607080917
:1051700000000000010203040D0A5352414D206D4E
:10518000656D6F72792066726F6D20257020746F67
:1051900020257020697320726561642073756363D4
:1051A00065737366756C6C792E2E2E2025642062D3
:1051B0006974206D656D6F727920726561640A0A89
:1051C0000D000000E451000800000020D80100009C
:1051D00090070008BC520008D8010020A81F00005A
:1051E000344600083122641A04042908211AFF01F8
:1051F0002D7856341208012813A5331B08D5041A3C
:10520000E1041309341B0835041A850C1AB104177C
:1052100004030904120114020202164083044057D9
:10522000260201020301031A1A0313F1071B08EDFA
:10523000041AE9041315081B082D041933118210F0
:105240005324F4130A0632022A401C1C0902435B51
:105250001125C03209041B01020B1305241610018D
:105260000524011009010424020205240617010780
:10527000058203081C10090491320A1D070501026A
:10528000432C070581070938442A40072A81071162
:105290002B0907440A3B044413F12F1B0853041342
:1052A000E53042081A9D0C13C72E1B082908C11AA5
:0C52B000D9102ACD281904DAC11C000016
:04000005080001AD41
:00000001FF
